:1000000045C0000061C000005FC000005DC000008E
:100010005BC0000059C0000057C0000055C0000080
:1000200053C0000051C000004FC000004DC0000090
:100030004BC0000049C0000047C0000045C00000A0
:10004000B5C0000041C0000092C000003DC00000EB
:100050003BC0000039C0000037C0000035C00000C0
:1000600033C0000031C000002FC000002DC00000D0
:100070002BC0000029C0000027C0000025C00000E0
:1000800023C0000021C000001FC0000011241FBEBB
:10009000CFEFD0E1DEBFCDBF11E0A0E0B1E0E2EDF7
:1000A000F5E100E00BBF02C007900D92AA32B10744
:1000B000D9F722E0AAE2B1E001C01D92A539B2074A
:1000C000E1F7A8D60C94E70A9BCF2CB53DB5232BBE
:1000D000E1F325E535E545E051E40E94840A20E09E
:1000E00030E048E453E40E94CD080E949D0967383F
:1000F00081E0780734F46A3071052CF46AE070E02E
:1001000002C066E871E0CB01089690938500809369
:1001100084009BBD8ABD685071097093870060930D
:10012000860079BD68BD0895CF9318BA88E80E940B
:10013000C20883E40E94C208C1E0C8BB18BA80E9C3
:100140000E94C20880E00E94C208C8BB18BA80E2C0
:100150000E94C208C8BBCF91089597B1907F890FC4
:1001600087B9369A349BFECF84B195B108951F921A
:100170000F920FB60F9211240BB60F928F93EF933D
:10018000FF93E0915C0281E08E0F80935C02F0E0CF
:100190008CB1EA5BFE4F8083FF91EF918F910F90BE
:1001A0000BBE0F900FBE0F901F9018951F920F92CD
:1001B0000FB60F9211240BB60F924F925F926F926F
:1001C0007F928F929F92AF92BF92CF92DF92EF92E7
:1001D000FF922F933F934F935F936F937F938F93F0
:1001E0009F93AF93BF93EF93FF93CF93DF9300D091
:1001F00000D0CDB7DEB783E882BF21E025BB80E029
:10020000ACDFBC01990F880B990B0E94D009609359
:100210007B0270937C0280937D0290937E0218BAD9
:1002200088EEB0D781E088BB18BA88E6ABD7AFD7E5
:10023000C82ED12CE12CF12CFE2CED2CDC2CCC2466
:10024000A6D7C82AFE2CED2CDC2CCC24A0D7C82A9B
:10025000FE2CED2CDC2CCC249AD791E098BBC82A3C
:10026000F094E094D094C094C11CD11CE11CF11C0A
:10027000C0928702D0928802E0928902F0928A02AC
:1002800083E085BB6091870270918802809189022A
:1002900090918A020E94D00920E030E042EA58E4BE
:1002A000E4D79B01AC0179D72BED3FE049E450E462
:1002B0000E94840A60938C0270938D0280938E0258
:1002C00090938F0260918C0270918D0280918E02CA
:1002D00090918F0220E030E044EB53E40E94800ACA
:1002E0001816B4F460918C0270918D0280918E0288
:1002F00090918F0220E030E044EB53E44DD76093BF
:100300008C0270938D0280938E0290938F0224C092
:1003100060918C0270918D0280918E0290918F027B
:1003200020E030E044EB53EC9CD78823ACF46091A0
:100330008C0270918D0280918E0290918F0220E04C
:1003400030E044EB53E429D760938C0270938D0224
:1003500080938E0290938F0220917A028DEC289FD9
:10036000812D1124869586958695880F982F990F53
:10037000990F890F281340C060918C0270918D02F3
:1003800080918E0290918F02209190023091910283
:10039000409192025091930280901801909019011F
:1003A000A0901A01B0901B01F7D66B017C0120E0F0
:1003B00030E040E251E4C501B4010E94840A9B018F
:1003C000AC01C701B60151D760934201709343015C
:1003D000809344019093450180918C0290918D020D
:1003E000A0918E02B0918F0280939002909391021F
:1003F000A0939202B093930280E0AFDEBC01990F0C
:10040000880B990BCDD760937B0270937C0280930D
:100410007D0290937E0260917B0270917C028091BC
:100420007D0290917E0220E030E040E85AE30E9495
:10043000840A20E030E040EA50E40E94840A24E686
:100440003BE34FE150E4A8D620E030E040E251E445
:100450000E94840ADC01CB01B0588093540290932F
:100460005502A0935602B093570290917A0289E206
:10047000989F812D112482958F70A4E68A9F9019F0
:100480001124911170C160913E0170913F018091E2
:1004900040019091410120918C0230918D02409158
:1004A0008E0250918F0278D6609346027093470275
:1004B00080934802909349026091460270914702EE
:1004C00080914802909149022BED3FE049E450E4CD
:1004D0000E94800A181624F5609146027091470226
:1004E00080914802909149022BED3FE049EC50E4A5
:1004F00053D66093460270934702809348029093CC
:1005000049026091460270914702809148029091A1
:1005100049022BED3FE049E450E4F2D71816E4F22B
:100520006091460270914702809148029091490281
:100530002BED3FE049E450EC94D6882324F56091FC
:1005400046027091470280914802909149022BED3A
:100550003FE049EC50E421D6609346027093470295
:10056000809348029093490260914602709147023D
:1005700080914802909149022BED3FE049E450EC14
:1005800070D68823E4F28091040190910501A09136
:100590000601B091070189839A83AB83BC83C09025
:1005A0004602D0904702E0904802F09049026091E4
:1005B0004602709147028091480290914902209131
:1005C0003A0130913B0140913C0150913D018090B6
:1005D000000190900101A0900201B09003014090B1
:1005E00018015090190160901A0170901B01D4D528
:1005F000A501940189D74B015C0120E030E048EC73
:1006000052E4C301B20180D79B01AC01C501B40122
:100610002CD64B015C01A701960169817A818B81FF
:100620009C8172D79B01AC01C501B401B6D5609322
:100630007F02709380028093810290938202809166
:10064000460290914702A0914802B09149028093DE
:100650003A0190933B01A0933C01B0933D0160911E
:100660007F0270918002809181029091820220E04D
:1006700030E840E254E444D718166CF480E090E887
:10068000A0E2B4E480937F0290938002A093810261
:10069000B09382021BC060917F02709180028091B2
:1006A00081029091820220E030E840E254ECD9D5FA
:1006B000882364F480E090E8A0E2B4EC80937F02A9
:1006C00090938002A0938102B093820260917F0296
:1006D000709180028091810290918202209121018B
:1006E00030912201409123015091240109D718161D
:1006F0008CF48091210190912201A0912301B0916D
:10070000240180937F0290938002A0938102B09392
:10071000820227C08091210190912201A0912301A2
:10072000B091240120917F0230918002409181029A
:1007300050918202BC01CD019058E2D618168CF47B
:100740008091210190912201A0912301B091240177
:10075000B05880937F0290938002A0938102B0935F
:10076000820210927A0220917A028DEC289F812DCC
:100770001124869586958695880F982F990F990F45
:10078000890F2813D3C180917F0290918002A0919C
:100790008102B09182028093250190932601A0935B
:1007A0002701B09328016091250170912601809165
:1007B00027019091280120914201309143014091FD
:1007C000440150914501E8D4609383027093840200
:1007D0008093850290938602809083029090840299
:1007E000A0908502B0908602C0900C01D0900D01BF
:1007F000E0900E01F0900F0160912E0170912F0199
:1008000080913001909131012091080130910901CE
:1008100040910A0150910B0140901801509019012C
:1008200060901A0170901B016FD669837A838B8365
:100830009C8320E030E040E251E4C301B20164D681
:100840009B01AC0169817A818B819C815DD62B01F2
:100850003C01A7019601C501B40156D69B01AC012C
:10086000C301B2019AD460937602709377028093A9
:100870007802909379026091830270918402809152
:1008800085029091860220912E0130912F01409196
:1008900030015091310181D460932E0170932F016A
:1008A00080933001909331016091760270917702CC
:1008B000809178029091790228EB3EE145E050E486
:1008C0001FD618160CF03FC0609176027091770227
:1008D000809178029091790280900C0190900D01A6
:1008E000A0900E01B0900F01C0902E01D0902F016A
:1008F000E0903001F090310128EB3EE145E050E41A
:100900004BD4A5019401B1D420E030E040E450E4A0
:10091000ACD49B01AC01C701B6013ED460932E015B
:1009200070932F01809330019093310188EB9EE109
:10093000A5E0B0E48093760290937702A0937802CA
:10094000B09379024EC060917602709177028091E7
:1009500078029091790228EB3EE145E050EC81D499
:1009600088230CF03EC060917602709177028091EE
:1009700078029091790280900C0190900D01A090E6
:100980000E01B0900F01C0902E01D0902F01E09089
:100990003001F090310128EB3EE145E050E4FDD319
:1009A000A501940162D420E030E040E450E45DD43D
:1009B0009B01AC01C701B601EFD360932E01709388
:1009C0002F01809330019093310188EB9EE1A5E0E7
:1009D000B0EC8093760290937702A0937802B09364
:1009E00079028091250190912601A0912701B09173
:1009F000280180932A0190932B01A0932C01B0939E
:100A00002D0160912E0170912F0180913001909104
:100A1000310120912A0130912B0140912C015091FC
:100A20002D016ED5181684F480912A0190912B0126
:100A3000A0912C01B0912D0180932E0190932F0154
:100A4000A0933001B093310180912A0190912B0144
:100A5000A0912C01B0912D0120912E0130912F01F8
:100A60004091300150913101BC01CD01905848D5E1
:100A700018168CF480912A0190912B01A0912C01E1
:100A8000B0912D01B05880932E0190932F01A09327
:100A90003001B093310160917602709177028091BC
:100AA00078029091790220911D0130911E014091B0
:100AB0001F015091200124D518168CF480911D013E
:100AC00090911E01A0911F01B091200180937602A8
:100AD00090937702A0937802B093790227C0809117
:100AE0001D0190911E01A0911F01B0912001209144
:100AF0007602309177024091780250917902BC01E0
:100B0000CD019058FDD418168CF480911D01909160
:100B10001E01A0911F01B0912001B0588093760270
:100B200090937702A0937802B093790280917A0231
:100B30008091760290917702A0917802B09179022B
:100B40008093580290935902A0935A02B0935B028B
:100B5000609158027091590280915A0290915B0203
:100B60002091540230915502409156025091570203
:100B700013D360934A0270934B0280934C0290937C
:100B80004D0280904A0290904B02A0904C02B0908F
:100B90004D02409014015090150160901601709024
:100BA000170160913201709133018091340190916D
:100BB00035012091100130911101409112015091A5
:100BC0001301C0901801D0901901E0901A01F09023
:100BD0001B019AD4A701960197D46B017C01A30154
:100BE0009201C501B40190D49B01AC01C701B601CB
:100BF000D4D2A3D370933701609336016091420140
:100C0000709143018091440190914501E09036013B
:100C1000F09037012FED30EE4BE85DE375D44B01DA
:100C20005C01B701FF0C880B990BBAD39B01AC0197
:100C3000C501B401B2D281D37093370160933601FC
:100C400060914A0270914B0280914C0290914D024A
:100C5000209132013091330140913401509135019E
:100C60009CD260933201709333018093340190934E
:100C70003501809136019091370149970CF43FC0BE
:100C8000609176027091770280917802909179025A
:100C90008090140190901501A0901601B09017015A
:100CA000C0903201D0903301E0903401F0903501D2
:100CB00020E030E040EC51E46FD2A5019401D5D2A0
:100CC00020E030E040E450E4D0D29B01AC01C70109
:100CD000B60162D260933201709333018093340184
:100CE0009093350180E090E0A0ECB1E4809376022F
:100CF00090937702A0937802B09379024EC06091EE
:100D0000760270917702809178029091790220E0CA
:100D100030E040EC51ECA5D288230CF03EC060914D
:100D2000760270917702809178029091790280909A
:100D3000140190901501A0901601B0901701C09079
:100D40002E01D0902F01E0903001F090310120E091
:100D500030E040EC51E421D2A501940186D220E09C
:100D600030E040E450E481D29B01AC01C701B60100
:100D700013D260932E0170932F01809330019093D2
:100D8000310180E090E0A0ECB1EC8093760290938A
:100D90007702A0937802B093790280917A028F5FF4
:100DA00080937A026091360170913701072E000C12
:100DB000880B990BF5D289D980913801909139012E
:100DC000019690933901809338010F900F900F9006
:100DD0000F90DF91CF91FF91EF91BF91AF919F91D4
:100DE0008F917F916F915F914F913F912F91FF90E4
:100DF000EF90DF90CF90BF90AF909F908F907F90BB
:100E00006F905F904F900F900BBE0F900FBE0F90A2
:100E10001F901895CF93DF93CDB7DEB764970FB6C9
:100E2000F894DEBF0FBECDBF8EEF8C838B838A8399
:100E300089834FD195D19DD159D15DD16FD1109278
:100E40008900109288001DBC1CBC60E070E0CB01E2
:100E50003CD981D169D983E882BF7894B12CAA2486
:100E6000AA940F2EFEE5CF2EF2E0DF2EF02D6624A1
:100E700063946894772471F80F2EF4E18F2EF02D8F
:100E80000F2EF3E09F2EF02D7E0185E1E80EF11C80
:100E9000ABBA90918B0280915C02981709F4BEC0A6
:100EA000809194028130E1F018F08230E1F1ABC022
:100EB000E0918B02F0E0EA5BFE4F80818F3F69F4A6
:100EC00080915D028F5F80935D0280915D0284302E
:100ED00009F099C06092940296C010925D0293C08E
:100EE000E0915D0281E08E0F80935D02F0E0A091C1
:100EF0008B02B0E0AA5BBE4F8C91E25AFD4F80831B
:100F000080915D02883009F07EC0F6019581809164
:100F10001C01981303C07092940275C01092940241
:100F200010925D0270C0E0915D0281E08E0F8093AF
:100F30005D02F0E0A0918B02B0E0AA5BBE4F8C9105
:100F4000E25AFD4F8083E0918B02F0E0EA5BFE4FB6
:100F50008081B80EF601948180915D02981344C09F
:100F60008781B8123BC086818230C1F5608571856A
:100F70008285938515D220E030E04AE754E475D1AC
:100F800060933E0170933F01809340019093410133
:100F9000F601648575858685978502D220E030E06C
:100FA0004AE754E462D16093210170932201809357
:100FB000230190932401F6016089718982899389C4
:100FC000EFD120E030E04AE754E44FD160931D01B7
:100FD00070931E0180931F01909320011092940240
:100FE00010925D02B12C0FC0F601948180915D02D8
:100FF000981720F080915D02853128F010929402BC
:1010000010925D02B12C80918B028F5F80938B02D6
:1010100090918B0280915C02981342CF80913801AD
:101020009091390144970CF433CF1092390110920A
:10103000380180911C018E838D829F821886609179
:101040008C0270918D0280918E0290918F0220E02F
:1010500030E04AE754E458D270D169877A878B87A9
:101060009C8760914201709143018091440190916D
:10107000450120E030E04AE754E446D25ED16D8776
:101080007E878F87988B6091540270915502809172
:1010900056029091570220E030E04AE754E434D2FF
:1010A0004CD1698B7A8B8B8B9C8BFE01399681910D
:1010B0009885890F8887EE16FF06C9F78E010F5FA6
:1010C0001F4FF80181918F0159D00E151F05C9F7E7
:1010D000DFCE8FEF8ABB84BB88E081BB87E687BB0E
:1010E0008AE182B91BBA87E088BB089584E083BF98
:1010F00081E087BF089582EE8FBD81E18EBD8FE8CC
:1011000091E097BD86BD10927900109278001BBCCB
:101110001ABC19BC18BC1DBC1CBC089582EB809382
:101120008B0081E180938A008FE891E090938100A9
:1011300080938000109283001092820010928700AA
:1011400010928600109285001092840010928900FF
:1011500010928800089580E487B986E886B90895DA
:101160001BB888E98AB986E08093950087E689B93B
:10117000089580E58DB981E08EB908955D9BFECF1D
:101180008CB908958FB9779BFECF8FB108951FB8A2
:10119000779BFECF8FB108955058BB27AA270ED05A
:1011A00075C166D130F06BD120F031F49F3F11F45E
:1011B0001EF45BC10EF4E095E7FB51C1E92F77D136
:1011C00080F3BA17620773078407950718F071F464
:1011D0009EF58FC10EF4E0950B2EBA2FA02D0B01BA
:1011E000B90190010C01CA01A0011124FF27591B6C
:1011F00099F0593F50F4503E68F11A16F040A22F72
:10120000232F342F4427585FF3CF469537952795E2
:10121000A795F0405395C9F77EF41F16BA0B620BE1
:10122000730B840BBAF09150A1F0FF0FBB1F661F28
:10123000771F881FC2F70EC0BA0F621F731F841F6B
:1012400048F4879577956795B795F7959E3F08F091
:10125000B3CF9395880F08F09927EE0F9795879550
:101260000895D9D008F481E008950CD00FC107D1BA
:1012700040F0FED030F021F45F3F19F0F0C0511182
:1012800039C1F3C014D198F39923C9F35523B1F3AD
:10129000951B550BBB27AA2762177307840738F0E5
:1012A0009F5F5F4F220F331F441FAA1FA9F333D044
:1012B0000E2E3AF0E0E830D091505040E695001CF8
:1012C000CAF729D0FE2F27D0660F771F881FBB1FB4
:1012D000261737074807AB07B0E809F0BB0B802D8E
:1012E000BF01FF2793585F4F2AF09E3F510568F0DA
:1012F000B6C000C15F3FECF3983EDCF3869577956E
:101300006795B795F7959F5FC9F7880F911D9695DB
:10131000879597F90895E1E0660F771F881FBB1F37
:10132000621773078407BA0720F0621B730B840BE4
:10133000BA0BEE1F88F7E095089504D06894B111B8
:10134000D9C00895BCD088F09F5790F0B92F992745
:10135000B751A0F0D1F0660F771F881F991F1AF0C0
:10136000BA95C9F712C0B13081F0C3D0B1E0089589
:10137000C0C0672F782F8827B85F39F0B93FCCF30A
:10138000869577956795B395D9F73EF490958095B6
:10139000709561957F4F8F4F9F4F0895E89409C0D6
:1013A00097FB3EF490958095709561957F4F8F4F98
:1013B0009F4F9923A9F0F92F96E9BB279395F695AE
:1013C000879577956795B795F111F8CFFAF4BB0F2C
:1013D00011F460FF1BC06F5F7F4F8F4F9F4F16C090
:1013E000882311F096E911C0772321F09EE8872F1A
:1013F000762F05C0662371F096E8862F70E060E0D6
:101400002AF09A95660F771F881FDAF7880F96954E
:10141000879597F90895990F0008550FAA0BE0E8F2
:10142000FEEF16161706E807F907C0F012161306A6
:10143000E407F50798F0621B730B840B950B39F4E6
:101440000A2661F0232B242B252B21F408950A264C
:1014500009F4A140A6958FEF811D811D089597F98C
:101460009F6780E870E060E008959FEF80EC08954A
:1014700000240A9416161706180609060895002473
:101480000A9412161306140605060895092E0394ED
:10149000000C11F4882352F0BB0F40F4BF2B11F461
:1014A00060FF04C06F5F7F4F8F4F9F4F089557FDC0
:1014B0009058440F551F59F05F3F71F04795880FC2
:1014C00097FB991F61F09F3F79F087950895121659
:1014D00013061406551FF2CF4695F1DF08C0161605
:1014E00017061806991FF1CF8695710561050894B6
:1014F0000895E894BB2766277727CB0197F90895CD
:101500008ADF08F48FEF08950BD0C0CFB1DF28F049
:10151000B6DF18F0952309F0A2CFA7CF1124EACFA8
:10152000C6DFA0F3959FD1F3950F50E0551F629F42
:10153000F001729FBB27F00DB11D639FAA27F00D2C
:10154000B11DAA1F649F6627B00DA11D661F829F53
:101550002227B00DA11D621F739FB00DA11D621F38
:10156000839FA00D611D221F749F3327A00D611D55
:10157000231F849F600D211D822F762F6A2F112437
:101580009F5750408AF0E1F088234AF0EE0FFF1F8A
:10159000BB1F661F771F881F91505040A9F79E3FC1
:1015A000510570F05CCFA6CF5F3FECF3983EDCF3C3
:1015B000869577956795B795F795E7959F5FC1F7FE
:1015C000FE2B880F911D9695879597F90895F894AD
:0215D000FFCF4B
:1015D2004A0C023EE7FB9940D1A224427368C13F04
:1015E200333B0A4523DBA93F6F12033A0100008017
:0A15F2003F00002041CDCC4C3E002C
:00000001FF
