:1000000045C0000060C000005EC000005CC0000091
:100010005AC0000058C0000056C0000054C0000084
:1000200052C0000050C000004EC000004CC0000094
:100030004AC0000048C0000046C0000044C00000A4
:10004000ACC0000040C0000089C000003CC00000FF
:100050003AC0000038C0000036C0000034C00000C4
:1000600032C0000030C000002EC000002CC00000D4
:100070002AC0000028C0000026C0000024C00000E4
:1000800022C0000020C000001EC0000011241FBEBE
:10009000CFEFD0E1DEBFCDBF11E0A0E0B1E0EAE0FC
:1000A000FCE000E00BBF02C007900D92AA30B10740
:1000B000D9F722E0AAE0B1E001C01D92AD36B20747
:1000C000E1F7F8D1A0C59CCF2CB53DB5232BE1F3CA
:1000D00025E535E545E051E433D520E030E048E45E
:1000E00053E4A3D36ED4673881E0780734F46A30E0
:1000F00071052CF46AE070E002C066E871E0CB01A3
:10010000089690938500809384009BBD8ABD6850BB
:100110007109709387006093860079BD68BD08956A
:10012000CF9318BA88E876D383E474D3C1E0C8BB10
:1001300018BA80E96FD380E06DD3C8BB18BA80E2EB
:1001400069D3C8BBCF91089597B1907F890F87B9C4
:10015000369A349BFECF84B195B108951F920F92C9
:100160000FB60F9211240BB60F928F93EF93FF935C
:10017000E091300281E08E0F80933002F0E08CB18C
:10018000E65EFE4F8083FF91EF918F910F900BBE43
:100190000F900FBE0F901F9018951F920F920FB6E1
:1001A0000F9211240BB60F928F929F92AF92BF9233
:1001B000CF92DF92EF92FF922F933F934F935F93F3
:1001C0006F937F938F939F93AF93BF93CF93EF934F
:1001D000FF9383E882BFC1E0C5BB80E0B5DFBC010F
:1001E000990F880B990B20D460934F0270935002A3
:1001F000809351029093520218BA88EE0BD3C8BB79
:1002000018BA88E607D30BD3C82ED12CE12CF12CD9
:10021000FE2CED2CDC2CCC2402D3C82AFE2CED2C99
:10022000DC2CCC24FCD2C82AFE2CED2CDC2CCC24DB
:10023000F6D2C8BBC82AF094E094D094C094C11CF4
:10024000D11CE11CF11CC0925B02D0925C02E092D6
:100250005D02F0925E0283E085BB60915B0270916B
:100260005C0280915D0290915E02DED320E030E07E
:1002700042EA58E43ED39B01AC01D7D22BED3FE0DC
:1002800049E450E45DD4609360027093610280930E
:1002900062029093630290914E0289E2989F812DB1
:1002A000112482958F7024E6829F90191124911158
:1002B00002C010924E0220914E028DEC289F812D9B
:1002C0001124869586958695880F982F990F990FFA
:1002D000890F28132EC06091600270916102809195
:1002E0006202909163022091640230916502409114
:1002F00066025091670298D22AE037ED43EA5BE349
:10030000F8D26093120170931301809314019093BB
:1003100015018091600290916102A0916202B091FA
:1003200063028093640290936502A0936602B09387
:10033000670280914E028F5F80934E028DEC9CECA1
:10034000ACECBDEB80932C0290932D02A0932E0277
:10035000B0932F0260914F02709150028091510230
:100360009091520220E030E040E85AE3E9D320E0E7
:1003700030E040EA50E4E4D320E030E040E250E4F2
:1003800053D220E030E040E251E4DAD3DC01CB018B
:10039000B0588093280290932902A0932A02B09328
:1003A0002B0260912C0270912D0280912E0290916F
:1003B0002F02209128023091290240912A02509167
:1003C0002B0232D260931E0270931F028093200290
:1003D0009093210260911E0270911F028091200271
:1003E000909121028090680290906902A0906A0228
:1003F000B0906B022DEC3CEC4CEC5DE3A1D36B01B7
:100400007C0120E030E040EC5FE3C501B40198D30B
:100410009B01AC01C701B60108D2D3D270930B0186
:1004200060930A0160911E0270911F028091200268
:1004300090912102209168023091690240916A02F4
:1004400050916B02F2D160936802709369028093BD
:100450006A0290936B0260910A0170910B01072E62
:10046000000C880B990BE0D22FDE80910C0190914B
:100470000D01019690930D0180930C01FF91EF9176
:10048000CF91BF91AF919F918F917F916F915F912C
:100490004F913F912F91FF90EF90DF90CF90BF90C1
:1004A000AF909F908F900F900BBE0F900FBE0F904C
:1004B0001F901895CF93DF93CDB7DEB764970FB633
:1004C000F894DEBF0FBECDBF8EEF8C838B838A8303
:1004D000898347D18DD195D151D155D167D1109212
:1004E0008900109288001DBC1CBC60E070E0CB014C
:1004F000EBDD79D115DE83E882BF7894B12C0F2E25
:10050000F4E19F2EF02D0F2EF3E0AF2EF02D7E01A3
:1005100085E1E80EF11C0F2EF2E3CF2EF2E0DF2E84
:10052000F02D6894772471F888248394BAC0809160
:100530006C028130E1F018F08230E1F1ADC0E09161
:100540005F02F0E0E65EFE4F80818F3F69F48091AC
:1005500031028F5F8093310280913102843009F043
:100560009BC080926C0298C01092310295C0E091BD
:10057000310281E08E0F80933102F0E0A0915F02A2
:10058000B0E0A65EBE4F8C91EE5CFD4F8083809103
:100590003102883009F080C0F60195818091000118
:1005A000981303C070926C0277C010926C02109284
:1005B000310272C0E091310281E08E0F80933102EE
:1005C000F0E0A0915F02B0E0A65EBE4F8C91EE5CC1
:1005D000FD4F8083E0915F02F0E0E65EFE4F808198
:1005E000B80EF601948180913102981344C087813E
:1005F000B8123BC086818230C1F5608571858285E5
:10060000938512D220E030E04AE754E472D160933F
:100610000E0170930F018093100190931101F60168
:100620006485758586859785FFD120E030E04AE7AF
:1006300054E45FD160930501709306018093070134
:1006400090930801F6016089718982899389ECD1C0
:1006500020E030E04AE754E44CD16093010170930C
:100660000201809303019093040110926C02109296
:100670003102B12C11C0F60194818091310298179A
:1006800020F080913102853138F086E6BFD010929B
:100690006C0210923102B12C80915F028F5F8093C7
:1006A0005F0290915F0280913002981340CF809159
:1006B0000C0190910D014497A4F310920D0110923A
:1006C0000C01809100018E839D82AF82188660911B
:1006D0000E0170910F01809110019091110120E0A5
:1006E00030E04AE754E42CD26CD169877A878B8753
:1006F0009C8760910501709106018091070190919E
:10070000080120E030E04AE754E41AD25AD16D875C
:100710007E878F87988B6091010170910201809193
:1007200003019091040120E030E04AE754E408D24C
:1007300048D1698B7A8B8B8B9C8BFE01399681918A
:100740009885890F8887EE15FF05C9F78E010F5F21
:100750001F4FF80181918F0159D00E151F05C9F760
:10076000A0CF8FEF8ABB84BB88E081BB87E687BBC5
:100770008AE182B91BBA87E088BB089584E083BF11
:1007800081E087BF089582EE8FBD81E18EBD8FE845
:1007900091E097BD86BD10927900109278001BBC45
:1007A0001ABC19BC18BC1DBC1CBC089582EB8093FC
:1007B0008B0081E180938A008FE891E09093810023
:1007C0008093800010928300109282001092870024
:1007D0001092860010928500109284001092890079
:1007E00010928800089580E487B986E886B9089554
:1007F0001BB888E98AB986E08093950087E689B9B5
:10080000089580E58DB981E08EB908955D9BFECF96
:100810008CB908958FB9779BFECF8FB108951FB81B
:10082000779BFECF8FB108955058BB27AA270ED0D3
:100830004DC13ED130F043D120F031F49F3F11F44F
:100840001EF433C10EF4E095E7FB29C1E92F4FD127
:1008500080F3BA17620773078407950718F071F4DD
:100860009EF567C10EF4E0950B2EBA2FA02D0B015B
:10087000B90190010C01CA01A0011124FF27591BE5
:1008800099F0593F50F4503E68F11A16F040A22FEB
:10089000232F342F4427585FF3CF4695379527955C
:1008A000A795F0405395C9F77EF41F16BA0B620B5B
:1008B000730B840BBAF09150A1F0FF0FBB1F661FA2
:1008C000771F881FC2F70EC0BA0F621F731F841FE5
:1008D00048F4879577956795B795F7959E3F08F00B
:1008E000B3CF9395880F08F09927EE0F97958795CA
:1008F00008950CD0EBC0E3D040F0DAD030F021F412
:100900005F3F19F0CCC0511115C1CFC0F0D098F3A2
:100910009923C9F35523B1F3951B550BBB27AA2780
:1009200062177307840738F09F5F5F4F220F331FF2
:10093000441FAA1FA9F333D00E2E3AF0E0E830D0BE
:1009400091505040E695001CCAF729D0FE2F27D0C1
:10095000660F771F881FBB1F261737074807AB078F
:10096000B0E809F0BB0B802DBF01FF2793585F4F04
:100970002AF09E3F510568F092C0DCC05F3FECF367
:10098000983EDCF3869577956795B795F7959F5FC9
:10099000C9F7880F911D9695879597F90895E1E01D
:1009A000660F771F881FBB1F621773078407BA077C
:1009B00020F0621B730B840BBA0BEE1F88F7E095D7
:1009C000089504D06894B111B5C0089598D088F006
:1009D0009F5790F0B92F9927B751A0F0D1F0660F2B
:1009E000771F881F991F1AF0BA95C9F712C0B13046
:1009F00081F09FD0B1E008959CC0672F782F8827A1
:100A0000B85F39F0B93FCCF3869577956795B39584
:100A1000D9F73EF490958095709561957F4F8F4FF3
:100A20009F4F0895E89409C097FB3EF490958095F8
:100A3000709561957F4F8F4F9F4F9923A9F0F92FA4
:100A400096E9BB279395F695879577956795B79522
:100A5000F111F8CFFAF4BB0F11F460FF1BC06F5F08
:100A60007F4F8F4F9F4F16C0882311F096E911C01A
:100A7000772321F09EE8872F762F05C0662371F03B
:100A800096E8862F70E060E02AF09A95660F771F4F
:100A9000881FDAF7880F9695879597F9089597F943
:100AA0009F6780E870E060E008959FEF80EC089514
:100AB00000240A941616170618060906089500243D
:100AC0000A9412161306140605060895092E0394B7
:100AD000000C11F4882352F0BB0F40F4BF2B11F42B
:100AE00060FF04C06F5F7F4F8F4F9F4F089557FD8A
:100AF0009058440F551F59F05F3F71F04795880F8C
:100B000097FB991F61F09F3F79F087950895121622
:100B100013061406551FF2CF4695F1DF08C01616CE
:100B200017061806991FF1CF86957105610508947F
:100B30000895E894BB2766277727CB0197F9089596
:100B40000BD0C4CFB5DF28F0BADF18F0952309F039
:100B5000A6CFABCF1124EECFCADFA0F3959FD1F380
:100B6000950F50E0551F629FF001729FBB27F00D5B
:100B7000B11D639FAA27F00DB11DAA1F649F6627B0
:100B8000B00DA11D661F829F2227B00DA11D621FFF
:100B9000739FB00DA11D621F839FA00D611D221FB9
:100BA000749F3327A00D611D231F849F600D211D9D
:100BB000822F762F6A2F11249F5750408AF0E1F040
:100BC00088234AF0EE0FFF1FBB1F661F771F881F89
:100BD00091505040A9F79E3F510570F060CFAACFC9
:100BE0005F3FECF3983EDCF3869577956795B79574
:100BF000F795E7959F5FC1F7FE2B880F911D96959E
:0A0C0000879597F90895F894FFCF47
:0A0C0A00010000803F0000803F0061
:00000001FF
